:100000000C945E000C9486000C9486000C94860080
:100010000C9486000C9486000C9486000C94860048
:100020000C9486000C9486000C9486000C94860038
:100030000C9486000C9486000C9486000C94860028
:100040000C946D020C9486000C94DD020C94B702A3
:100050000C9486000C9486000C9486000C94860008
:100060000C9486000C948600000000080002010039
:100070000003040700000000000000000000000072
:10008000250028002B0000000000240027002A0083
:10009000040404040404040402020202020203032E
:1000A0000303030301020408102040800102040836
:1000B00010200102040810200F03050511241FBEA3
:1000C000CFEFD8E0DEBFCDBF22E0A0E5B1E001C0B8
:1000D0001D92A030B207E1F711E0A0E0B1E0E4EB3F
:1000E000FEE002C005900D92A035B107D9F710E0EF
:1000F000CDE5D0E004C02197FE010E944205CC3539
:10010000D107C9F70E9485030C944D070C94000099
:1001100090E0FC01EC55FF4F2491FC01E057FF4FAC
:100120008491882399F090E0880F991FFC01EA5789
:10013000FF4FA591B491FC01E458FF4F8591949134
:100140008FB7F894EC91E22BEC938FBF089590E079
:10015000FC01E859FF4F2491FC01EC55FF4F34910D
:10016000FC01E057FF4FE491EE2309F43CC0222349
:1001700039F1233091F038F42130A9F0223001F523
:1001800084B58F7D12C0273091F02830A1F0243043
:10019000B9F4809180008F7D03C0809180008F77BB
:1001A000809380000DC084B58F7784BD09C0809195
:1001B000B0008F7703C08091B0008F7D8093B00036
:1001C000F0E0EE0FFF1FE458FF4FA591B4919FB7E9
:1001D000F894611104C08C913095382302C0EC91E1
:1001E0003E2B3C939FBF08950895CF92DF92EF92EC
:1001F000FF920F931F93CF93DF936C017A018B01D2
:10020000C0E0D0E0CE15DF0581F0D8016D918D0101
:10021000D601ED91FC910190F081E02DC601099588
:10022000892B11F02196EECF7E01C701DF91CF918E
:100230001F910F91FF90EF90DF90CF90089580E095
:1002400090E00895FC01538D448D252F30E0842FDC
:1002500090E0821B930B541710F0CF9608950197EE
:100260000895FC01918D828D981761F0828DDF01D8
:10027000A80FB11D5D968C91928D9F5F9F73928F99
:1002800090E008958FEF9FEF08952FB7F894809135
:10029000550190915601A0915701B09158012FBF7F
:1002A0008093610190936201A0936301B093640114
:1002B00089E591E00E94310197FF26C02FB7F8949D
:1002C0008091550190915601A0915701B09158012C
:1002D0002FBF409161015091620160916301709163
:1002E0006401841B950BA60BB70B40915D015091E7
:1002F0005E0160915F017091600184179507A60708
:10030000B707B0F28FEF9FEF0895FC01918D828DBA
:10031000981731F0828DE80FF11D858D90E00895DA
:100320008FEF9FEF0895FC01918D228D892F90E032
:10033000805C9F4F821B91098F739927089589E5EF
:1003400091E00E94930121E0892B09F420E0822FA3
:100350000895FC01848DDF01A80FB11DA35ABF4F82
:100360002C91848D90E001968F739927848FA689B4
:10037000B7892C93A089B1898C91837080648C9308
:10038000938D848D981306C00288F389E02D8081B7
:100390008F7D80830895EF92FF920F931F93CF93E9
:1003A000DF93EC0181E0888F9B8D8C8D981305C0C5
:1003B000E889F989808185FD26C0F62E0B8D10E035
:1003C0000F5F1F4F0F731127E02E8C8DE8120CC0AA
:1003D0000FB607FCFACFE889F989808185FFF5CF50
:1003E000CE010E94A901F1CF8B8DFE01E80FF11D16
:1003F000E35AFF4FF0829FB7F8940B8FEA89FB898D
:10040000808180620AC09FB7F894EE89FF8960837B
:10041000E889F98980818370806480839FBF81E04F
:1004200090E0DF91CF911F910F91FF90EF90089591
:10043000CF93DF93EC01888D8823C9F0EA89FB898B
:10044000808185FD05C0A889B9898C9186FD0FC082
:100450000FB607FCF5CF808185FFF2CFA889B98957
:100460008C9185FFEDCFCE010E94A901E7CFDF91EE
:10047000CF91089580E090E0892B29F00E949F01A0
:1004800081110C94000008950E942F070F931F9371
:10049000CF93DF93EC0188819981009729F02A811D
:1004A0003B812617370788F48B016F5F7F4F0E94CF
:1004B0006906009761F0998388831B830A832C81E6
:1004C0003D81232B11F4FC01108281E001C080E00A
:1004D000DF91CF911F910F9108951F920F920FB648
:1004E0000F9211242F933F938F939F93AF93BF93BA
:1004F0008091550190915601A0915701B0915801FA
:100500003091540123E0230F2D3720F40196A11DD3
:10051000B11D05C026E8230F0296A11DB11D209331
:1005200054018093550190935601A0935701B093C5
:1005300058018091500190915101A0915201B091C8
:1005400053010196A11DB11D80935001909351015B
:10055000A0935201B0935301BF91AF919F918F919E
:100560003F912F910F900FBE0F901F9018951F92E3
:100570000F920FB60F9211242F933F934F935F93D7
:100580006F937F938F939F93AF93BF93EF93FF935B
:1005900089E591E00E94A901FF91EF91BF91AF9190
:1005A0009F918F917F916F915F914F913F912F918B
:1005B0000F900FBE0F901F9018951F920F920FB6BD
:1005C0000F9211242F938F939F93EF93FF93E091BA
:1005D0006901F0916A018081E0916F01F0917001F1
:1005E00082FD12C09081809172018F5F8F73209184
:1005F0007301821751F0E0917201F0E0E75AFE4F6B
:10060000958F8093720101C08081FF91EF919F913E
:100610008F912F910F900FBE0F901F9018951092F1
:100620005C0110925B0188EE93E0A0E0B0E0809363
:100630005D0190935E01A0935F01B09360018AE039
:1006400091E090935A018093590185EC90E090934A
:1006500066018093650184EC90E09093680180933B
:10066000670180EC90E090936A018093690181ECCE
:1006700090E090936C0180936B0182EC90E09093FA
:100680006E0180936D0186EC90E0909370018093F1
:100690006F01109272011092730110927401109206
:1006A00075011092F7011092F6011092F901109263
:1006B000F8011092FB011092FA0160E070E086EF01
:1006C00091E00E9446022091F6013091F7018111DC
:1006D00013C02115310519F0C9010E94E0051092DF
:1006E000F7011092F6011092FB011092FA0110929C
:1006F000F9011092F80108951092FB011092FA018D
:1007000068E471E0C9010C944607CF93DF93CDB73D
:10071000DEB728970FB6F894DEBF0FBECDBF789432
:1007200084B5826084BD84B5816084BD85B58260F6
:1007300085BD85B5816085BD80916E0081608093A7
:100740006E00109281008091810082608093810010
:100750008091810081608093810080918000816020
:10076000809380008091B10084608093B10080917B
:10077000B00081608093B00080917A0084608093A3
:100780007A0080917A00826080937A0080917A006A
:10079000816080937A0080917A00806880937A00EB
:1007A0001092C100E0916901F0916A0182E08083BA
:1007B000E0916501F09166011082E0916701F0918E
:1007C00068018FEC808310927101E0916D01F091CE
:1007D0006E0186E08083E0916B01F0916C01808175
:1007E00080618083E0916B01F0916C018081886071
:1007F0008083E0916B01F0916C018081806880833F
:10080000E0916B01F0916C0180818F7D808387E0A6
:100810000E94880086E00E94880085E00E9488008F
:1008200060E087E00E94A70060E086E00E94A700E9
:1008300060E085E00E94A7004DE250E068E171E0D1
:1008400089E591E00E94F50042E050E066E471E045
:1008500089E591E00E94F50089E591E00E9493010D
:10086000892BD1F31A8219821C821B821E821D825F
:1008700060E070E0CE0101960E94460229813A8133
:1008800081110DC02115310519F0C9010E94E00543
:100890001A8219821E821D821C821B8207C01E8240
:1008A0001D8268E471E0C9010E9446070E9445016B
:1008B00097FD1BC08F8318860D811E810F5F1F4F10
:1008C000B801CE0101960E944602882379F329815E
:1008D0003A818D819E81BE01695F7F4F820F931F98
:1008E0000E9446071E830D83E1CF8091F60190910F
:1008F000F701009741F069817A816115710509F06E
:1009000071C00E94E00589819A819093F7018093DC
:10091000F6018B819C819093F9018093F8018D8180
:100920009E819093FB018093FA011A82198289813A
:100930009A810E94E0058091FA019091FB01892B38
:10094000B1F069E471E08091F6019091F7010E94A5
:100950003D07892B61F461E087E00E94A70060E019
:1009600086E00E94A70060E085E00E94A7008091D9
:10097000FA019091FB01892BB1F06BE471E0809159
:10098000F6019091F7010E943D07892B61F460E028
:1009900087E00E94A70061E086E00E94A70060E077
:1009A00085E00E94A7008091FA019091FB01892BBC
:1009B000B1F06DE471E08091F6019091F7010E9431
:1009C0003D07892B61F460E087E00E94A70060E0AA
:1009D00086E00E94A70061E085E00E94A7000E94D7
:1009E0003A022ACF4091F8015091F9012D813E81C0
:1009F0004217530708F485CF0E9446078D819E81D8
:100A00009093FB018093FA0192CF8091F60190912F
:100A1000F7010C94E0052F923F924F925F926F92F4
:100A20007F928F929F92AF92BF92CF92DF92EF927E
:100A3000FF920F931F93CF93DF93CDB7DEB7CA1BFF
:100A4000DB0B0FB6F894DEBF0FBECDBF09942A882A
:100A5000398848885F846E847D848C849B84AA84D2
:100A6000B984C884DF80EE80FD800C811B81AA815F
:100A7000B981CE0FD11D0FB6F894DEBF0FBECDBF2A
:100A8000ED010895EE0FFF1F0590F491E02D0994FC
:100A90000F931F93CF93DF938230910510F482E080
:100AA00090E0E091FE01F091FF0120E030E0A0E055
:100AB000B0E0309719F140815181028113814817CC
:100AC0005907C8F08417950769F4109731F012960A
:100AD0000C93129713961C9327C00093FE0110935A
:100AE000FF0122C02115310519F04217530718F4F0
:100AF0009A01BD01EF01DF01F801DBCF21153105BE
:100B0000F9F0281B390B2430310580F48A819B8150
:100B10006115710521F0FB019383828304C09093DA
:100B2000FF018093FE01FE01329644C0FE01E20FF8
:100B3000F31F8193919322503109398328833AC05E
:100B40002091FC013091FD01232B41F42091020101
:100B5000309103013093FD012093FC0120910001AD
:100B6000309101012115310541F42DB73EB7409177
:100B7000040150910501241B350BE091FC01F0911B
:100B8000FD01E217F307A0F42E1B3F0B28173907CE
:100B900078F0AC014E5F5F4F2417350748F04E0FD9
:100BA0005F1F5093FD014093FC018193919302C01C
:100BB000E0E0F0E0CF01DF91CF911F910F91089518
:100BC000CF93DF93009709F481C0FC013297138221
:100BD0001282A091FE01B091FF01109781F4208153
:100BE0003181820F931F2091FC013091FD01281764
:100BF000390751F5F093FD01E093FC0167C0ED0169
:100C000020E030E0CE17DF0740F44A815B819E018F
:100C100041155105F1F0EA01F5CFD383C28340813C
:100C20005181840F951FC817D90759F4888199817C
:100C3000840F951F0296918380838A819B81938381
:100C400082832115310529F4F093FF01E093FE0121
:100C50003DC0E901FB83EA8349915991C40FD51F37
:100C6000EC17FD0761F480819181840F951F029636
:100C7000E90199838883828193819B838A83E0E061
:100C8000F0E012968D919C911397009719F0FD0159
:100C9000DC01F7CF8D919C9111979D012E5F3F4F05
:100CA000820F931F2091FC013091FD012817390715
:100CB00069F4309729F41092FF011092FE0102C0EE
:100CC00013821282B093FD01A093FC01DF91CF91BA
:100CD0000895A0E0B0E0EFE6F6E00C940F05EC011B
:100CE000009721F4CB010E944805B4C0FC01E60F37
:100CF000F71F9C0122503109E217F30708F4A8C03E
:100D0000D9010D911C91119706171707B0F0053006
:100D1000110508F49BC0C80104978617970708F4CB
:100D200095C002501109061B170B019311936D9387
:100D30007C93CF010E94E00589C05B01A01AB10A33
:100D40004C01800E911EA091FE01B091FF01612C1B
:100D5000712CE12CF12C109709F446C08D919C91D7
:100D60001197A815B905B1F56C0142E0C40ED11C6C
:100D7000CA14DB0478F14C018A189B08640142E034
:100D8000C40ED11C1296BC9012971396AC91B5E08C
:100D9000CB16D10440F0B282A38391828082D90124
:100DA0006D937C9309C00E5F1F4F800F911FF90157
:100DB00091838083EB2DFA2FE114F10431F0D701F8
:100DC0001396FC93EE93129741C0F093FF01E093CA
:100DD000FE013CC06816790608F43C017D011296BC
:100DE0000D90BC91A02DB7CF8091FC019091FD0199
:100DF00088169906E1F466167706C8F4809100011A
:100E000090910101009741F48DB79EB74091040184
:100E100050910501841B950BE817F907C8F4F0936E
:100E2000FD01E093FC01F901718360830FC0CB01E8
:100E30000E9448057C01009759F0A801BE010E945C
:100E40003407CE010E94E005C70104C0CE0102C0F4
:100E500080E090E0CDB7DEB7EEE00C942B0581E0AA
:100E600090E0F8940C944D07FB01DC0102C0019066
:100E70000D9241505040D8F70895FB01DC018D914F
:100E8000019080190110D9F3990B0895FB01DC0141
:100E900001900D920020E1F7089510E0CDE5D0E03B
:100EA00004C0FE010E9442052196CE35D107C9F744
:040EB000F894FFCFE4
:100EB40000000002800000000000CB01F5002201C8
:100EC40018029301310185014B6574696B20276D0C
:100ED4002720752F206D657261682C2027682720D4
:100EE400752F2068696A61752C2027622720752F69
:100EF4002062697275000D0A006D006800620000CE
:107E0000112484B714BE81FFF0D085E080938100F7
:107E100082E08093C00088E18093C10086E0809377
:107E2000C20080E18093C4008EE0C9D0259A86E02C
:107E300020E33CEF91E0309385002093840096BBD3
:107E4000B09BFECF1D9AA8958150A9F7CC24DD24C4
:107E500088248394B5E0AB2EA1E19A2EF3E0BF2EE7
:107E6000A2D0813461F49FD0082FAFD0023811F036
:107E7000013811F484E001C083E08DD089C08234E0
:107E800011F484E103C0853419F485E0A6D080C0E4
:107E9000853579F488D0E82EFF2485D0082F10E0AE
:107EA000102F00270E291F29000F111F8ED06801E7
:107EB0006FC0863521F484E090D080E0DECF843638
:107EC00009F040C070D06FD0082F6DD080E0C81688
:107ED00080E7D80618F4F601B7BEE895C0E0D1E017
:107EE00062D089930C17E1F7F0E0CF16F0E7DF06D8
:107EF00018F0F601B7BEE89568D007B600FCFDCFD4
:107F0000A601A0E0B1E02C9130E011968C91119780
:107F100090E0982F8827822B932B1296FA010C0160
:107F200087BEE89511244E5F5F4FF1E0A038BF0790
:107F300051F7F601A7BEE89507B600FCFDCF97BE46
:107F4000E89526C08437B1F42ED02DD0F82E2BD052
:107F50003CD0F601EF2C8F010F5F1F4F84911BD097
:107F6000EA94F801C1F70894C11CD11CFA94CF0C13
:107F7000D11C0EC0853739F428D08EE10CD085E9AC
:107F80000AD08FE07ACF813511F488E018D01DD067
:107F900080E101D065CF982F8091C00085FFFCCF94
:107FA0009093C60008958091C00087FFFCCF809118
:107FB000C00084FD01C0A8958091C6000895E0E648
:107FC000F0E098E1908380830895EDDF803219F02E
:107FD00088E0F5DFFFCF84E1DECF1F93182FE3DFCA
:107FE0001150E9F7F2DF1F91089580E0E8DFEE27F6
:047FF000FF270994CA
:027FFE00040479
:0400000300007E007B
:00000001FF
